:10000000003B0020F10D0000DB500000DD0D000082
:10001000DD0D0000DD0D0000DD0D00000000000022
:10002000000000000000000000000000B10F000010
:10003000DD0D0000000000007D0F0000DD0D000060
:100040004111000041110000411100004111000068
:100050004111000041110000411100004111000058
:100060004111000041110000411100004111000048
:100070004111000041110000411100004111000038
:100080004111000041110000411100004111000028
:100090004111000041110000411100004111000018
:1000A0004111000041110000411100004111000008
:1000B00041110000411100004111000041110000F8
:1000C00041110000411100004111000041110000E8
:1000D00041110000411100004111000041110000D8
:1000E00041110000411100004111000041110000C8
:1000F00041110000411100004111000041110000B8
:1001000053B94AB9002908BF00281CBF4FF0FF317E
:100110004FF0FF3000F00CB8ADF1080C6DE904CEE3
:1001200000F008F8DDF804E0DDE9022304B07047D0
:10013000704700BF2DE9F04786468C460846089E6A
:10014000154674461946002B40F0C2808542B2FA2B
:1001500082F245D94AB1C2F1200300FA02FC2EFA1C
:1001600003F3954043EA0C0C94404FEA154EA8B2B5
:10017000BCFBFEF8230C0EFB18CC08FB00F943EA8D
:100180000C43994528D9EB1808F1FF3704D299455B
:1001900002D9A8F102072B44A3EB0903A4B2B3FBD5
:1001A000FEFC0EFB1C330CFB00F044EA0344A042AF
:1001B00014D92C190CF1FF3304D2A04202D9ACF1AE
:1001C00002032C44241A43EA07401EB1D440002302
:1001D00034607360BDE8F0874746DDE76346F1E7CA
:1001E00092BB431B01214FEA154EAFB2B3FBFEFC9D
:1001F000200C0EFB1C330CFB07F840EA0343984528
:1002000062D9EB180CF1FF3004D2984502D9ACF159
:1002100002002B44A3EB0803A4B2B3FBFEFC0EFBCD
:100220001C330CFB07F744EA0344A7424ED92C19B0
:100230000CF1FF3304D2A74202D9ACF102032C44E3
:10024000E41B43EA0040C0E7C2F1200320FA03F1B7
:10025000954090402EFA03F303434FEA154EAFB298
:10026000B1FBFEFC0EFB1C10190C0CFB07F841EA5D
:100270000041884504FA02F422D969180CF1FF30D4
:1002800004D2884502D9ACF102002944A1EB08014F
:100290009BB2B1FBFEFC0EFB1C110CFB07F743EA03
:1002A00001439F420ED9EB180CF1FF3104D29F425B
:1002B00002D9ACF102012B44DB1B41EA004192E779
:1002C0006046E3E76146F7E76046A3E76346B7E7C2
:1002D000834206D916B9002108467BE7C6E900E04B
:1002E000F9E7B3FA83F78FB9834201D3724508D88F
:1002F000BEEB020460EB030301209C461EB9002103
:1003000068E73846FAE7C6E9004CF8E7C7F1200C81
:10031000BB4022FA0CF41C432EFA0CF120FA0CF329
:10032000B84001434FEA14490EFA07F5B3FBF9F858
:100330001FFA84FE09FB18300B0C08FB0EFA43EA87
:1003400000439A4502FA07F240D9E31808F1FF305A
:1003500004D29A4502D9A8F102002344A3EB0A0370
:1003600089B2B3FBF9F809FB183308FB0EFE41EA2A
:1003700003418E452CD9611808F1FF3304D28E4514
:1003800002D9A8F10203214443EA0040A0FB0298ED
:10039000A1EB0E014145CE46434602D306D14D4561
:1003A00004D2B9EB020E68EB04030138002EA6D08C
:1003B000B5EB0E0261EB030101FA0CFC22FA07F324
:1003C0004CEA0303F940C6E9003198E74046C5E727
:1003D0004346D9E770B5094E094D4FF0FF334FF052
:1003E000FF32304603F0B2F8D0E901120446284645
:1003F00004F083FD204605F0A9FBEEE7B8010020DC
:100400008C62000037B504464FF0FF324FF0FF33E7
:10041000CDE9002306480022012105F081FB0025DB
:1004200005F001022179206804F095FA0135F7E71B
:10043000AC0100202DE9F0433D4B93E807008DB05F
:100440006C4684E807003B4A07CA03AB83E8070011
:10045000394A07CA06AB83E80700384B93E8070020
:100460000CAB03E90700254600264FF001082F6872
:10047000384605F06DF830B9396831480DB0BDE83F
:10048000F04304F03ABDEB882868297943F4003240
:10049000D0F810C0D0F8089013F0010FDCF800304D
:1004A00008FA01FE14BF4EEA030323EA0E03CCF858
:1004B0000030D9F80030984710F0FF010DD00CAB98
:1004C0000C2202FB06321F4812F8283C12F82C2C92
:1004D0000DB0BDE8F04304F010BD29790122384683
:1004E00004F039FA0136C82004F045FA042E05F16B
:1004F0000C05BCD14FF4FA7004F03DFA032594F8D2
:100500002810606A002204F026FA013DC82004F099
:1005100032FA6B1CA4F10C04F1D14FF4FA7004F020
:100520002AFA094801210DB0BDE8F04305F0F2BAFE
:10053000BC600000B0600000A46000009860000093
:10054000A7620000C6620000AC0100202DE9F7435D
:1005500005460E4617464FF0FF324FF0FF33CDE908
:1005600000231348DFF84890DFF84880002201217B
:1005700005F0D6FA00242B7A012B05D10222610066
:100580001140484605F0CAFA04F0010229792868AA
:1005900004F0E1F90C2005F0E0FAC0E9017401462D
:1005A000404605F0D9F8304604F0E5F90134E2E7B9
:1005B000AC010020B801002008B5024800226421E7
:1005C000FFF7C4FFBC6000002DE9F74F05468B46DE
:1005D00016464FF0FF384FF0FF390022CDE9008971
:1005E0000121144805F09CFA1248134FCDE9008907
:1005F0000022022105F094FA002414F0010A06D02A
:100600000C48CDE900890122022105F089FA524601
:100610002979286804F09FF90C2005F09EFAC0E9BA
:1006200001640146384605F097F8584604F0A3F9EE
:100630000134E2E7AC010020B8010020014B1B6847
:10064000184700BF0000002030B585B004460D46B5
:1006500010220021684605F05DFB02238DF8023070
:100660002A46044B01932146684603F017FF05B064
:1006700030BD00BF3D060000014B1860704700BF51
:100680000000002080B505460E461746984603F048
:10069000C9FA034605F046FBDFF81890044649F80E
:1006A0000030424630463946A84754F8090000F069
:1006B0000DFC00BF080000002DE9F047058B044643
:1006C0002807904611D4022905F0070540F0CC8098
:1006D000204604F01FFC78B10138218B042811D882
:1006E000DFE800F0C2106D85950001290CBF45F0D0
:1006F000100545F02005258388F31188BFF36F8F1F
:10070000BDE8F08701F0070AAA4500F0A5800027A0
:10071000B9463E46A368002B00F0BC8041F00801BA
:10072000218388F31188BFF36F8FA168002900F03F
:10073000BA800D68002900F0B680D1F804803346F5
:1007400052462046C047002D76D02B6829461D46CC
:10075000F0E701F007035A1F012A1BD8002221F0FD
:100760000701062B276889B2C4E9002209D13B465C
:1007700003E0628B013262831B68002BF9D141F0E8
:1007800002012183204604F0C5FB00287AD041F005
:10079000200176E0042B0AD121F0070189B22183E0
:1007A000204604F0B7FB10B141F020012183218BDA
:1007B00001F0070AAA454FD00027B946AAE72369E6
:1007C00021F0070141F00601062DD3F800902183A6
:1007D0002DD1B9F1000F3FD041F00801218388F3FA
:1007E0001188BFF36F8F3A492046C84729E021F0AE
:1007F0000701236941F0040189B2042DD3F8049064
:100800002183E6D000273E464FF0040A82E721F01C
:100810000701236941F0050189B2052DD3F808903D
:100820002183D6D000273E464FF0050A72E7002705
:100830003E464FF0060A6DE72B4687E7B9F1000FF9
:10084000D1D1EFF31188202383F31288BFF36F8F88
:10085000238B23F008032383258BEA062ED525F06E
:100860001003238305F007056669218B002EBFF670
:1008700070AF00232768C4E9003321F0070141F07D
:1008800001012183218B01F0070AAA454FF00009DD
:100890007FF440AF002F9CD041F00801218388F302
:1008A0001188BFF36F8F002FC8D03D68394633469B
:1008B0005246204604F05AFB2F46F4E7AB067FF57C
:1008C0001BAF25F02003238305F0070500E700BFD9
:1008D000994F0000014B036000207047C860000082
:1008E00008B5044804F009FBBDE80840024804F0DC
:1008F00004BB00BF3363000068630000014803F0DD
:1009000025BC00BFC860000038B5044618B90F4BBD
:100910000F485B6898476168B1F5683F10D0B1F542
:10092000680F0DD00B4DA9420AD011F46861206800
:1009300007D00146084804F061FE0023236065608B
:1009400038BD142205F0E6F9F9E700BFE000002009
:10095000966300002C5F5CA9180C002008B520B33A
:100960004368B3F5683F10D101220368BFF35B8F82
:1009700053E8001F002903D143E800200028F7D1E5
:10098000BFF35B8F0DD1002008BD094A93420AD006
:1009900000684FF0FF324FF0FF3302F023FD0028D4
:1009A000F1D00448F0E70448EEE76FF4E040EBE7ED
:1009B0002C5F5CA9E98FFFFFEA8FFFFF08B5D8B174
:1009C0004368B3F5683F10D100220368BFF35B8F23
:1009D00053E8001F012903D143E800200028F7D184
:1009E000BFF35B8F0BD1002008BD074A934208D0AC
:1009F000006802F06FFDF6E76FF4E040F4E70348AB
:100A0000F2E70348F0E700BF2C5F5CA9E98FFFFF26
:100A1000EA8FFFFF10B5044618B91D4B1D485B68EF
:100A200098476368B3F5683F2FD0B3F5680F2CD0B3
:100A3000194A934219D1236803BB18484FF0FF327B
:100A40004FF0FF33214602F09FFC08B923681BB921
:100A50000F4B13485B68984720681422002105F06B
:100A600059F94FF46863636008E0B3F5683F0DD847
:100A70003A2B03D040F6BA629342DED1206804F0EC
:100A8000F6FD636843F03A03636010BD054AF3E77F
:100A9000E0000020966300002C5F5CA9180C002089
:100AA000BC6300003A00003A08B5064906484023F6
:100AB000142204F095FDBDE808400449044803F001
:100AC000B7BB00BF18070020180C0020D060000042
:100AD000E460000030BFFFF7FDBF00BF2DE9F0412B
:100AE0000B4EDFF8308006EB0807CC1B054632467C
:100AF0000949204605F000F9A01942460021083CAA
:100B000005F008F9C5F8804007F10800BDE8F0815C
:100B1000000000000400000090600000074A936895
:100B200093F90E10002907DB526993421FBF044A54
:100B3000536843F080535360704700BF900D00200E
:100B400000ED00E070B5264B15469A6A12F0100FC2
:100B50009A6A14BF1124102412F0080F9A6A18BF61
:100B60001224920706460AD5586B9A6A140634D5A1
:100B700019B19A6A22F080029A62132401E06FF0A0
:100B80001500174B9A6A12F0010F9A6A18BF1424C5
:100B900012F0200F9A6A18BF1524D20602D49B6A5D
:100BA0009B070AD50E4B5B68190506D5314600F048
:100BB0007BFA10B180F309880224094B9A6A9206E5
:100BC00042BF5A6A22F400525A629A6A42F0FF0205
:100BD0009A6200232B70204670BD6FF01500CCE7A1
:100BE00000ED00E0134B9A6A12F0007F9A6A14BF7E
:100BF0001E201D2012F0807F9A6A18BF1F2012F459
:100C0000002F9A6A18BF212012F4802F9A6A18BF09
:100C1000222012F4003F9A6A18BF232012F4803F6A
:100C20009A6A6FEA02426FEA12429A6218BF24205F
:100C3000704700BF00ED00E010B5194B0246986AFE
:100C40009C6A10F4805F14BF1720162014F4006F04
:100C50009C6A18BF1820A40509D5986B986A0004EF
:100C600004D51AB19A6A22F400429A6219200C4BF8
:100C70009A6A12F4806F9A6A18BF1A20D2050CD4AF
:100C80009B6A13F4005F18BF1C20054A936A43F463
:100C90007F43936200230B7010BD1B20F5E700BF5C
:100CA00000ED00E0F0B5484B5B688BB00446C3F341
:100CB0000803002585F31188BFF36F8F02F07F4092
:100CC000B0F17F4F11D102F00C0008280DD01007B1
:100CD0004CBF0C4601250022033B8DF80720032B57
:100CE00005D8DFE803F0246367602C46F3E70023B0
:100CF0009DF80720CAB902AE04F120072068616898
:100D0000324603C20834BC421646F7D1099A002D78
:100D100054D0C2F3080121B96FEA52226FEA42228D
:100D2000099202A9184604F0CEF90BB0F0BD264B8B
:100D3000DA6A9107DBD4DA6A002AD8DBDA6A520071
:100D4000D5D55A69A16942F480725A61BFF34F8FB9
:100D5000BFF36F8F5A6931F8021C22F480725A6116
:100D6000BFF34F8FBFF36F8F4DF6027291420AD0DF
:100D70009A6AD2B24AB10DF1070201212046FFF76B
:100D8000E1FE0346B4E72368B2E79A6A12F47F4FA4
:100D900005D00DF107010120FFF74EFFF1E79B6A37
:100DA000B3F5803FA3D3FFF71DFFEAE70DF107027C
:100DB0000021E3E70DF107010020EDE722F4FF72C7
:100DC00022F00102ACE700BF00ED00E0024A5369E7
:100DD00043F010035361704700ED00E0EFF308802B
:100DE000EFF3098101B57246FFF75CFF01BD00BF5B
:100DF000002080F31488BFF36F8F01F013FB0020F5
:100E00000D490860BFF34F8F0C4880F3088800F04D
:100E10002BF8202080F3118809484FF40461401812
:100E200080F30988EFF314800221084380F31488CB
:100E3000BFF36F8F00F000F994ED00E0003B00205D
:100E4000402D00200749D1F890200023C2F307224B
:100E50001846934200DB7047C1F89830C1F8A000F3
:100E60000133F6E700ED00E008B572B6002383F326
:100E70001388FFF7E7FF144B4FF0FF32C3F88020D1
:100E8000C3F88420C3F88820C3F88C20C3F89020CE
:100E9000C3F89420C3F89820C3F89C20C3F880219D
:100EA000C3F88421C3F88821C3F88C21C3F89021AA
:100EB000C3F89421C3F89821C3F89C2162B6BFF30C
:100EC0004F8FBFF36F8F08BD00E100E0084B9B68B8
:100ED00083420BD1EFF3058343B1064B5A6842F0CE
:100EE00080525A605A6A22F400425A6204F017BDD6
:100EF000900D002000ED00E00A4A93686FF00A01AF
:100F0000C3F888100849C3F884004B6843F0805345
:100F10004B60002383F31188BFF36F8F9368D3F87E
:100F200088007047900D002000ED00E010B50446E9
:100F3000EFF31183202383F31288BFF36F8F0C4BE1
:100F4000586998600B4B4FF000625A600A4BD0F81A
:100F500080201A600022D0F88430C0F8842083F307
:100F60001188BFF36F8F00F009F9204610BD00BF54
:100F7000900D002000ED00E0340C00200B498A6841
:100F80004FF030001044EFF3098C80E8F01F7446F6
:100F90007046FFF7CBFFA64604498A6802F130008D
:100FA00090E8F01F8CF3098870470000900D002036
:100FB0001EF0040F0CBFEFF30880EFF30980816986
:100FC00011F8021C0229FFD001B504F082F801BD1E
:100FD00040B2002807DB044A4109012300F01F004A
:100FE000834042F82130704700E100E0054B4209A0
:100FF00000F01F0053F82220012303FA00F01040F4
:10100000704700BF00E100E040B20028A8BF00F137
:10101000604001F10101B8BF064B4FEA4111ACBF7E
:1010200000F5614000F00F00C9B2B4BF195480F858
:101030000013704714ED00E00B4A08B50B4B22F08B
:101040007F029A60BFF34F8FBFF36F8FD3F8882072
:1010500022F47002C3F8882002F0D0F802F06EFE8D
:1010600000F062F802F00EF90000000000ED00E070
:1010700042F8203C009B42F81C3C0A49019B42F884
:10108000183C029B42F8143C21F001014FF08073A0
:1010900042F8043C42F8081C0023203A0265C0F8DC
:1010A0008430704785060000094A0346906870B195
:1010B00013F1160F006F05D0A0F140029A4205D837
:1010C000834203D2814228BF00207047002070472E
:1010D000900D002008B515460C4A0D4B9060D0F8D5
:1010E00080201A600E4600F049F82C4686F30988E5
:1010F0004FF00000074B984720464FF000014FF09B
:1011000000024FF00003044C204700BF900D002068
:10111000340C0020F150000085060000014B102225
:101120001A61704700ED00E0044800232021C21836
:101130000133302B82F80013F9D1704700E100E051
:1011400008B5EFF30583064A103B02EBC30152F8E2
:10115000330049688847BDE80840FFF7DFBC00BF9F
:10116000F05D0000024B034A0348012100F076B80D
:101170000000042000000020F4600000026F054B16
:10118000403A1A60044A4021C3E90112184601217D
:1011900000F06EB8380C002000000B15084AC2F8A9
:1011A00098000B6823F01F03034343F01003C2F8B9
:1011B0009C308B6843F00103C2F8A030704700BF39
:1011C00000ED00E02DE9F043DFF8608085B00E46C9
:1011D0001F4604464FF00009B14523DA6068D8B1D4
:1011E0003FB1411E08421BD11F2819D9236819425B
:1011F00016D12368019303F09EFFA3680343039372
:10120000D8F89050C5F30725D0B2013DA84207D8C1
:1012100001A9FFF7C3FF421C09F101090C34DBE708
:101220006FF01502104605B0BDE8F08300ED00E058
:10123000044B0522C3F89420BFF34F8FBFF36F8F89
:10124000704700BF00ED00E0BFF35F8F024B00224C
:10125000C3F89420704700BF00ED00E010B5034CC8
:1012600001232278FFF7AEFF207010BD980F0020F9
:1012700008B50B4A00231278FFF7A4FF10F1160FF0
:1012800007D0084A0021D2F89030C3F307239842D0
:1012900000DB08BDC2F89800C2F8A0100130F2E7E8
:1012A000980F002000ED00E02DE9F043534B544C23
:1012B000D3F890302568C3F307239D4285B000F230
:1012C0009A80FFF7C1FF00200C2685421AD14D4CB1
:1012D0004D4F25706846FFF7FDFADFF82081DFF8F3
:1012E0002C9106460025AE4213D1237843490020B5
:1012F000D1F89020C2F30722934276DBFFF798FFE4
:10130000002042E0616806FB0011FFF747FF013053
:10131000DBE7009800EB05114FEA051CCB683B406A
:10132000B3F5000F48D00AD8B3F5001F30D0B3F59D
:10133000800F36D0B3F5801F10D00135D3E7B3F15D
:10134000807F42D0B3F1007FF7D150F80C3088682D
:101350004A6803F0F0FE40F4802009E050F80C30B9
:1013600088684A6803F0E7FE40F0885040F4302077
:10137000CDE901230390D8F890302078C3F30723F8
:10138000013B98422AD96FF0150005B0BDE8F08303
:1013900050F80C3088684A6803F0CDFE40EA090036
:1013A000E6E750F80C3088684A6803F0C4FE40F065
:1013B000E06040F40030DBE750F80C3088684A68A1
:1013C00003F0B9FE40F08270D2E750F80C30886824
:1013D0004A6803F0B0FE40F08870C9E701A9FFF742
:1013E000DDFE237801332370A7E7C1F89830C1F8F8
:1013F000A00001337CE74FF0FF30C6E700ED00E0CE
:1014000000610000980F00200000F0FF00000811AC
:1014100008B5024B1B689847002008BD440C00200B
:10142000034B044A1860937843F0020393707047AB
:10143000440C00202400002008B50649064821F08D
:101440000701C1F1005202F5802203F0FCFC0020EC
:1014500008BD00BF473F0020480C0020044A01237C
:10146000C2F840354FF080420020C2F8783570470E
:1014700000E0014020B1034B800143F00103184715
:10148000704700BF90600000084B70B5C31A0D464E
:1014900007499B10044659430648402203F069FE61
:1014A0002B4601462046BDE870401847680C0020D6
:1014B000B76DDBB6A05D000073B50C4C0C4A402341
:1014C000041B00930D460B460A49A41061430646CF
:1014D000094803F07AFE011E05DA30462B4602B0B9
:1014E000BDE87040184702B070BD00BF680C002016
:1014F00035520000B76DDBB6A05D000010B5EFF30C
:101500001184202383F31288BFF36F8F074A136877
:1015100023F00201DB07116002D4012003F08AFFEF
:1015200084F31188BFF36F8F10BD00BFB80C00208B
:10153000002270B5012104461046FFF765FD0F48F3
:1015400001F0FAF80E4B984215D101F005F9266921
:101550000C49304603F02DFD00280BDB01253564D6
:101560002469084904F11C0003F023FD002801DB75
:10157000E564002070BD6FF00400FBE781160000F9
:101580000000AD0B206100001FB500220123CDE952
:101590000223094ACDF800D06B46CDF804D003F001
:1015A00042FE002805DB4FF480420023684602F02B
:1015B00023F805B05DF804FB5352000030B4104B23
:1015C0000C2202FB003301460020D3E90E5298633F
:1015D000EFF31180202484F31288BFF36F8F1C6C0B
:1015E00004F0C00444F002041C6480F31188BFF3CB
:1015F0006F8F1DB12B46034830BC184730BC704775
:10160000680C0020A05D000010B4EFF311822023CD
:1016100083F31288BFF36F8F1748016841F002040B
:101620000460C80707D482F31188BFF36F8F0120CD
:1016300010BC01F0A3B84FF08041D1F80C04D1F8F0
:101640000C14C907EFD5EFF3118083F31288BFF3B1
:101650006F8F0A490B6C03F0C00343F002030B6465
:1016600080F31188BFF36F8F82F31188BFF36F8F00
:10167000002010BCFFF7A2BFB80C0020680C0020AF
:1016800010B1012804D07047034B1B6C5B0701D1DC
:10169000FFF794BF704700BF680C00202DE9F041B0
:1016A0003849BFF35B8F0746012251E8003F41E80C
:1016B00000200028F9D1BFF35B8F33B9324933489A
:1016C0004B60CB608A6003F087FC7B1E012B2BD81C
:1016D000012F07D14FF08043D3F81C3403F00303EC
:1016E000012B21D004F043F80546F8B9284B1B78AC
:1016F000E3B14FF080430222C3F808230646DFF827
:1017000094804FF08044D4F81824D4F81834D203CD
:1017100015D503F00303012B01D0012F0FD155B3D1
:1017200086F31188BFF36F8FBDE8F081EFF3118668
:10173000202383F31288BFF36F8F0125DFE7ADB15C
:10174000304603F0E9FCD4F81835002BDBD1D4F88F
:101750000421002AD7D0C4F80431D4F8043101237D
:10176000C4F81835C8F88031A360CCE700212120E7
:1017700002F03AFAE7E74FF080430222C3F804236D
:10178000D2E700BF640C0020540C0020840C002021
:10179000AB13002000E100E008B5074803F0D8FED5
:1017A00038B10648FFF73CFE0448FEF765FF00200D
:1017B00008BD6FF01200FBE7DC5D0000C117000000
:1017C0000A2838B5074D044604D1AB680D215B6883
:1017D00028469847AB6803485B68E1B298472046C3
:1017E00038BD00BFDC5D0000F0B54068057B01F04E
:1017F0001F0444EA4514056987B0002D64D0B2F592
:10180000001F00F1100506D12146284603F092FE84
:10181000002007B0F0BD01AE0027B2F5800F0197A0
:10182000776039D1B3F1007F14BF052304238DF80D
:1018300004300023CDE904630393836823FA01F1A4
:1018400011F001011AD1B2F1A07F17D104F01F03EA
:10185000620903F5E0732AD0012A3BD11F4A52F8EE
:101860002330DB070AD40DF1030632462146284611
:1018700001F062FA1A4B98421CD0029603AA214644
:10188000284601F01BF9174B984220D1012221462E
:10189000284601F0B5FABBE7B3F1C06F05D0B3F14C
:1018A000007F14BF01230223C1E70323BFE74FF0EA
:1018B000A042D4E73146284601F09CFA094B9842F1
:1018C000DBD06FF00B00A4E76FF08500A1E76FF0AD
:1018D00015009EE751F82330FFDE00BF00030050E3
:1018E0000400AD0B0000AD0B38B545682B69B3B1F2
:1018F0001035284601F06EFA044680B901462846A4
:1019000001F034FA084B98420BD108492246284688
:1019100001F00CFA224605210620FFF775FB002096
:1019200038BD6FF00400FBE70000AD0B311900007B
:10193000420970B5034602D0012A17D070BD0D4E82
:10194000326951680029F9D003F01F0301250C68A2
:101950009D400029F2D08A682A4002D04B68304668
:1019600098472CB1236821461C46F2E7024EE7E770
:101970002346F8E7C85D0000B45D00002DE9F043A0
:10198000466840F20635D006337B87B002EA05058B
:1019900054BFC2F34010032001F01F07B5F5837F49
:1019A000144647EA43178DF8030044D00FD8062D9C
:1019B00018D007D8B5B1022D3FD06FF0150007B091
:1019C000BDE8F083B5F5807FF7D101250AE040F24C
:1019D0000222954233D0B5F5407F32D0B5F5007F75
:1019E000EBD1022522032ED5726801238B40C2F869
:1019F0000835326992BB07F01F037F092BD0012FF6
:101A000079D13F4A02EB830284F48033D2F8001785
:101A1000C3F30043C4F3404444EA430421F4E161C6
:101A200044EA800421F0070144EA05230B43C2F88D
:101A300000370020C3E70725D4E70425D2E70525B2
:101A4000D0E70325CEE7630341BF012372688B40D3
:101A5000C2F80C35CDE74FF0A042D3E710360DF1B8
:101A600002023946304601F067F914F4403F8046DF
:101A70000CD13946304603F05BFD224B9845D8D156
:101A80009DF80210304601F0AFF9D2E701AB4FF0FC
:101A9000000903AA39463046CDE90439CDE9019958
:101AA000CDF80C9001F00AF8164B984285D114F449
:101AB000003315D09DF803308DF80E3084F4803457
:101AC000C4F300444B4603AA394630468DF80C5007
:101AD0008DF80D4001F0ACF80A4B9842CDD06CE780
:101AE000CDE9043303AA0DF10303394630460393CD
:101AF00000F0E4FFF0E703F5E07352F82330FFDE77
:101B0000000300500000AD0B036803F01F025B09E7
:101B1000026004D0012B034818BF002070474FF02B
:101B2000A0407047000300502DE9F04FDFF86091AE
:101B3000DFF860A185B01546834600EB810140F2D5
:101B4000FF18594503D1002005B0BDE8F08FDBF840
:101B500000305804C3F3C322C3F3080400F191809A
:101B60005B0C19F80270444508BF4FF0FF34192B85
:101B700000F28A80DFE803F00D141A1D20261D886C
:101B80008888883663888888888888888888667C7A
:101B90007F82C5F80C45621C5ED10BF1040BD0E7C7
:101BA000C5F81445631CF8D000265FE0C5F8084569
:101BB000F1E7C5F81045F5E7661CC5F80845ECD017
:101BC000002604E0601CC5F80C45E6D0012603A8F9
:101BD0000394FFF799FF039B012202FA03F3C0F875
:101BE0000C3508E0C5F80845002FDBD1631CD4D0C4
:101BF000002632460627DBF80030019303F400404C
:101C0000002818BF002203A8009218BF01260394E1
:101C1000FFF77AFF039C019B009A00EB8400C3F35B
:101C2000412CD0F800473B0243EA8C03134304EAFB
:101C30000A04234343EA4603C0F80037ADE7C5F87A
:101C40000C45D1E7C5F86045621CDBF80030A4D034
:101C5000C3F30043002BB9D003A80394FFF754FF4C
:101C6000039B012606FA03F3C0F808353246C2E7A3
:101C7000C5F86445E8E7C5F86845E5E7C5F86C458B
:101C8000E2E76FF015005FE76FF085005CE700BFEB
:101C900023640000F0F8FCFF2DE9F743064600221C
:101CA00001210220FFF7B0F90220FFF791F97768D0
:101CB00035693C684FF00008C4F800852E60D7F8FD
:101CC0000C9001AA4146484603F01BFB002839DB73
:101CD000019BD9F8002019791868FFF725FF002823
:101CE00030DB6B7AD6F810C0012B03D0032B27D141
:101CF0004FF01008AB7A032B22D1E97A09B1012900
:101D00001ED12A7A12B1022A1AD10E226B6870688B
:101D1000B3F5164F006800F0B28034D8B3F5165F03
:101D200000F0B0801AD8B3F5966F00F0AD800CD8F3
:101D3000B3F5967F00F0AB80B3F5167F00F0AA8074
:101D40006FF0850003B0BDE8F083B3F5166F00F0C7
:101D5000A480B3F5965FF3D15C4B43E0B3F5E14F5C
:101D600000F09E8008D8B3F5615F00F09B80B3F56A
:101D7000964FE5D1564B35E047F6122E7345DFD12D
:101D80004FF400032EE0B3F5613F00F08D8015D8CD
:101D9000B3F5963F00F08B800AD84DF6C02E734500
:101DA00000F08780B3F5614FCAD14FF46B0319E09F
:101DB000B3F5E13FC4D14FF0EB7313E0B3F5612FFE
:101DC0007AD009D8DFF80CE1734578D0B3F5E12F6C
:101DD000B6D14FF0E86305E0DFF8FCE07345AFD122
:101DE0004FF08053C0F82435736841EA08011B683E
:101DF0000A43C3F86C25D5E901010CF1040383E81B
:101E000003007B68990712D505F1180001F02EF93F
:101E1000324B984256D1287E04F10C0204F59071A1
:101E200003F0FEFA2B7E0120984000F01DFC0823F1
:101E3000C4F800353B7A53B9C4F81031D4F81031E6
:101E40006B69C4F834350123C4F8383523607B68E6
:101E50009A075CBF4FF48073C4F804337B68DB06D9
:101E600044BF4FF48003C4F804332B69C4F84435ED
:101E700000200123C4F84805A360E36062E74FF443
:101E80001D03AFE7164BADE74FF49E23AAE74FF4CF
:101E9000A033A7E74FF41C33A4E74FF41D23A1E7B9
:101EA000104B9FE7104B9DE74FF06C739AE70F4B79
:101EB00098E74FF4650395E74FF0706392E74FF0B2
:101EC00080638FE76FF004003CE700BF00B01300B1
:101ED00000A04E0090D0030040420F000000AD0B68
:101EE0000050270000C0750000F03A0000903A0151
:101EF0002DE9F041044607690D4603F038FC4FF028
:101F00002008B0B92C4B1B789BB16426606803F0A5
:101F100026FAF0B9012003F081FA013EF6D1002142
:101F2000212001F061FEF0E786F31188BFF36F8F87
:101F3000F5E7EFF31186314688F31288BFF36F8F10
:101F4000606803F00CFA80B986F31188BFF36F8FD5
:101F5000EFE7EFF31186314688F31288BFF36F8FF6
:101F6000606803F0FCF90028DED03B691D706268F0
:101F700038691368C3F844050120C3F848050020F8
:101F8000C3F82001D3F82051C3F858015268D3F8A0
:101F90005801D20608D5626812680820C2F8000508
:101FA0004FF48002C3F8042301229A6081F3118860
:101FB000BFF36F8FBDE8F081AB13002070B5012334
:101FC00083400E4ABFF35B8FDC4352E8001F01EAF7
:101FD000040542E80056002EF7D1BFF35B8F4FF4A3
:101FE000803282400648C0F80823BFF35F8FBFF3FA
:101FF0006F8F0B4214BF0120002070BDD80C002051
:102000000010014070B40E49D1E90034D01AC31851
:1020100044F1000422F07F46C1E90034A6F5001324
:10202000B3F5400F09D2074B1B681A0A1B069C190F
:10203000054B42F10005C3E9004570BC01F058BFF3
:1020400038050020DC0C00204005002011B3BFF350
:102050005B8F0123104A834052E800CF4CEA030C07
:1020600042E800C10029F7D1BFF35B8F0B4A4FF460
:1020700080338340C2F80433094BBFF35B8F1B6886
:10208000BFF35B8FC340DB0742BF064B4FF4003208
:10209000C3F80021704700BFD80C00200010014099
:1020A000D40C002000E100E00D4B1868010A000686
:1020B000BFF35F8F0B4BD3F80435181841F10001C3
:1020C000B3F5801F0AD2084BD3E90023904271EB8D
:1020D000030303D210F1807041F10001704700BF8B
:1020E000DC0C002000100140400500202DE9F04FDD
:1020F00085B016461F469DF840A00446FFF75EFFD8
:102100000190FFF7D1FFB04271EB070354D23E4B71
:10211000301A67EB0101984271F100014FD23B4B3D
:1021200003EB0413D3E902239F4208BF96425ED01B
:1021300037494FF4803804F1500508FA04F8AD002F
:10214000C1F848832046ADB203F050F926F07F4B2A
:1021500005F1804504F5A87305F58835DC464FF098
:1021600003090293029A2CF07F4341F82230C1F810
:102170004483D1F80435274A6FF00200C01A604446
:1021800020F07F40904232D9286868B1D1F80435F8
:102190000393A3EB0B0020F07F40B0F5000F26D98E
:1021A000204603F023F9039BBAF1000F07D109EB96
:1021B000030C09F10109D5E7BAF1000F09D06FF05E
:1021C000150520460199FFF741FF284605B0BDE8F7
:1021D000F08F0123104ABFF35B8FA34052E8000F3A
:1021E000184342E800010029F8D1BFF35B8F07498B
:1021F0000E98230101EB0412C8500F9B5360C2E9F3
:1022000002670025DDE700BF0100800028050020EF
:1022100000100140FDFF7F00D40C00207FB51C4C56
:102220001C4BC4F80833C4F848331B4B00254FF04F
:10223000FF304FF0FF31C4F80855C3E902014FF4F5
:102240008033C4F80433154B02264FF400320121C9
:10225000C4F804631120C3F880212A46FEF7D4FE97
:102260001120FEF7B5FE0E4A0123A3602360136020
:102270000C4B0D4A0093CDE9015500232846FFF78A
:1022800035FF3046FFF70AFA284604B070BD00BF9C
:102290000010014003000F002805002000E100E0CD
:1022A000D80C002005200000FFFF7F002DE9F74338
:1022B0002F4CD4F8043399070BD5D4F8043143B12B
:1022C0002C4A0023C4F80431D4F8043113680133D4
:1022D0001360D4F80433DA0329D5BFF35B8F264BA0
:1022E00053E8002F22F0010143E800100028F7D145
:1022F000BFF35B8FD30702D4D4F84031BBB10025C4
:10230000C4F84051D4F84031FFF7CEFEEFF311820C
:10231000202383F31288BFF36F8F184BD3E9026732
:10232000B042B94106D282F31188BFF36F8F03B078
:10233000BDE8F0834FF0FF384FF0FF39C3E9028961
:10234000D3E900101D604FF48033C4F84833C4F85B
:102350004051D4F8403182F31188BFF36F8F0029C8
:10236000E5D0009032463B4628468847DFE700BF6D
:1023700000100140DC0C0020D40C002028050020B7
:1023800030B5431C124C85B005D08442A8BF04462A
:10239000012CB8BF0124FFF787FE0E4B0C4DD3E98B
:1023A0000013401AB0F5000F10D22218AA4228BF1D
:1023B0002A4652184FF0000007490091CDE901006C
:1023C00043F10003FFF792FE05B030BD2A46F0E767
:1023D000FFFF7F00380500200520000008B5FFF74B
:1023E00063FE024B1B68C01A08BD00BF3805002001
:1023F0004FF08053D3F83021082A06D1D3F8343176
:10240000052B02D8024AD05C70470020704700BFFD
:102410003F640000024AD2F80034002BFBD0704722
:1024200000E0014010B54FF08053D3F83021082A66
:102430004ED14FF080420021C2F80C11C2F81011A9
:10244000C2F8381502F54042D3F80414C2F820153A
:10245000D3F80814C2F82415D3F80C14C2F82815C0
:10246000D3F81014C2F82C15D3F81414C2F8301590
:10247000D3F81814C2F83415D3F81C14C2F8401558
:10248000D3F82014C2F84415D3F82414C2F8481520
:10249000D3F82814C2F84C15D3F82C14C2F85015F0
:1024A000D3F83014C2F85415D3F83414C2F86015B8
:1024B000D3F83814C2F86415D3F83C14C2F8681580
:1024C000D3F84014C2F86C15D3F84434C2F8703510
:1024D000FFF78EFF18B13A4B3A4AC3F88C26FFF744
:1024E00087FF18B1384BFB22C3F81825FFF780FF90
:1024F00070B14FF080414FF08053D1F8E42ED3F803
:10250000583222F00F0203F00F031343C1F8E43EE8
:10251000FFF76EFF20B12D4B4FF40072C3F8402639
:102520004FF08053D3F83031082B1AD14FF080434D
:10253000D3F80024D20744BF6FF00102C3F800248F
:102540004FF08053D3F83431052B02D8204AD35CA6
:102550003BB14FF01023D3F808224FF08043C3F86B
:1025600058254FF01023D3F80022002A03DBD3F8BC
:102570000432002B22DA174901234FF01020C1F852
:1025800004351224FFF746FFC0F80042FFF742FF70
:10259000C0F80442FFF73EFF0023C1F80435FFF7FF
:1025A00039FFBFF34F8F0C490C4BCA6802F4E0624D
:1025B0001343CB60BFF34F8F00BFFDE710BD00BFDB
:1025C000005000404881030000F0004000900240AD
:1025D0003964000000E0014000ED00E00400FA056D
:1025E00030B50468CCB1BFF35B8FB4FA84F3C3F1A8
:1025F0001F03DBB201229A4024EA020250E8005F86
:10260000A54204D140E8002CBCF1000FF6D1BFF385
:102610005B8FE6D102480B7030BD0248FCE700BF7B
:102620000000AD0B0200AD0B10B50368CB40DB071B
:1026300014D401238B400268BFF35B8F43EA02018D
:1026400050E8004F944204D140E8001CBCF1000F58
:10265000F6D1BFF35B8FEED1014810BD0148FCE716
:102660000000AD0B0400AD0B014BC3F8040570472F
:1026700000F00140F7B5044618B1012823D003B09B
:10268000F0BD4FF080430222C3F808230122DA6034
:10269000C3F80401D3F80431064601238DF807304E
:1026A00042F210754FF08047D4B1012CE7D1D7F832
:1026B0000C3403F48033AEBB83B3012002F0AEFED2
:1026C000013DF4D12AE04FF080430022C3F8080313
:1026D0005860C3F80021D3F800310DF10706DCE79C
:1026E000D7F8183403F480333EB9002BC7D001204B
:1026F00002F094FE013DF3D1C1E7D7F8182402F0AF
:1027000003023260002BBAD09DF80700012803D1E4
:1027100002F084FE013DC7D1012CB0D1054B00224F
:102720005A71ACE7D7F80C2402F001023270002B8A
:10273000EAD1F3E7E00C0020044B1A7922B9012218
:1027400018609A800248704702487047E00C0020E9
:102750000000AD0B0C00AD0B08B5074B1B682BB18F
:102760000020FEF743FC08B9FEF732FC4FF080432F
:102770000022C3F8182508BDE00C002010B510B1E8
:10278000012843D010BD4FF08043D3F81814D3F87C
:102790001824C80321D502F00303012B04D013B180
:1027A0000020FFF767FF00234FF080420220C2F8AD
:1027B000183508224FF4827303F180430021196019
:1027C00002F180421C6801241460154A12680AB3A1
:1027D0004FF08043C3F80403D4E7D3F81424D1079F
:1027E000E1D5D3F81C249207DAD40D4A12681AB145
:1027F0000222C3F80423C5E7D3F80421002AFBD042
:102800000022C3F80421D3F80431BBE700224FF4BF
:102810008073D1E71A68002AFCD019601B68B1E701
:10282000E00C002010B54FF08043D3F800216AB1CE
:102830000022C3F80021D3F800210122C3F80823A5
:10284000114B587910B95A711B6898474FF0804363
:10285000D3F8042172B10022C3F80421D3F8042173
:10286000D3F81824D3F81824920704D10122C3F80E
:1028700018259A6010BD0222C3F80823024BBDE858
:1028800010401B6801201847E00C0020036803F08B
:102890001F025B09026004D0012B034818BF00200F
:1028A00070474FF0A040704700030050034A4309AF
:1028B00000F01F00D35C1844C0B2704745640000AC
:1028C00070B50546FFF7F2FF0C4C08300E4634F8A1
:1028D0001030DA0508D5C3F3432304EBC3022846BE
:1028E00054F8333052689847A3682BB1E2683146F8
:1028F0002846BDE87040184770BD00BF500000205A
:1029000008B5FFF7D3FF034B083033F81000400B36
:1029100008BD00BF5000002008B5FFF7C7FF034BFC
:10292000083033F81000C0F3400008BD500000200C
:1029300008B5FFF7BBFF034B083033F81000C0F3B6
:10294000401008BD50000020034611F0010010B5F2
:10295000CCB20DD1A207C4F3400012D5094AD2F877
:1029600020055860C2F82005003818BF012008E093
:102970004FF0A041D1F820251A60C1F82025002A87
:10298000E8D010BD0003005010B5FFF78FFF124ACA
:10299000083032F81030D9051CD5C3F3432123F495
:1029A000F85322F8103002F10E04002034F8023FF0
:1029B00013F4807F03D0C3F3432399420AD001303C
:1029C0003028F3D1002342F831300448BDE81040EC
:1029D000FFF72ABE10BD00BF50000020C800002035
:1029E000F0B5054600200446012607468C420BD16F
:1029F000114BD3F87C2132B10022C3F87C21D3F8EB
:102A00007C3140F00040F0BDE3B29B0003F58072E2
:102A10009B0806FA03F31D420BD002F1804202F537
:102A2000C042D2F800C0BCF1000F02D0176012689B
:102A300018430134DAE700BF00600040F7B50646EE
:102A40000846FFF733FF194F00F108050C4637F829
:102A50001530DB0727D5304602F046FD2046FFF74C
:102A600067FF40B12046FFF74BFF316800F5A270C9
:102A7000002341F820302046FFF786FF002301A8FD
:102A800027F815300194FFF701FF019B00EB83004D
:102A9000074BD0F80027134043F00203C0F800377B
:102AA000044803B0F0BD0448FBE700BF500000201D
:102AB000F0F8FCFF0000AD0B0400AD0B2DE9FF4169
:102AC000164680460846FFF7F1FE0D46316804467B
:102AD00009B32846FFF720FF18B12846FFF728FF63
:102AE00010BB0023CDE900338DF80E308DF80F3088
:102AF0000DF10F020B4628460DF10E0102F09CFC71
:102B0000474A04F1080132F8113023F0020343F080
:102B1000010322F81130736863B328461F7859689F
:102B2000FFF7FAFE10B1D1B13E4826E03C4A04F16D
:102B3000080032F8103023F02003DB04DB0C22F80D
:102B4000103061B1032FEFD87168496891F800C067
:102B5000D8F80010A7B90CF5A27C41F82C70304AC7
:102B600004F1080132F8113023F01C0343EA870313
:102B700022F81130B3684BBB2B4804B0BDE8F0819C
:102B800001EB8C0143EA4C33D1F810E52EF0030E33
:102B9000C1F810E5D8F8001001EB8C0E43F02003CB
:102BA000DEF8101522F8103021F44F3121F4407175
:102BB000CEF810152902DEF8108501F47C5141EAA7
:102BC000074141EA0801CEF81015C8E7D3E90067CC
:102BD0002846FFF7D9FE002ECED0114DD5E90023AF
:102BE000964203D19F4201D1002209E00F480DF126
:102BF0000F01FFF7F5FC0C4B9842BED19DF80F205A
:102C000045F8326005EBC20308345F6035F81430D4
:102C100043EA422343F4807325F81430ACE700BF45
:102C2000500000200400AD0B0000AD0BC8000020D8
:102C30002DE9F0430C4685B08046204611461E46DD
:102C4000FFF734FE054629B32046FFF765FE18B9A5
:102C50002046FFF76DFE18BB314F05F1080937F824
:102C6000193013F01C0F02D04B78012B18D0012320
:102C70008DF80F300023CDE900134A1C8B1C204631
:102C80000DF10F0102F0D8FB37F8193043F00303C0
:102C900027F81930002E41D02046FFF73DFE18B925
:102CA000204805B0BDE8F08396F800C0D8F80030A1
:102CB0001B4F0CF5A272002143F8221005F1080207
:102CC00037F8121021F02001C904C90C27F812109E
:102CD00075781DB3D8F80000B67800EB8C002D0491
:102CE000D0F8103523F4991323F4F853C0F81035B5
:102CF000230203F47C5305F440353605D0F810E583
:102D00002B4306F4801641EA4C31334341F0200155
:102D100043EA0E0327F81210C0F810350248C0E746
:102D2000500000200400AD0B0000AD0B014BC3E9C7
:102D3000021270475000002010B508461446FFF7F5
:102D4000F7FD50B10846FFF7B1FD054B083033F8E9
:102D5000103004485B0B237010BD0348FCE700BF34
:102D6000500000200000AD0B0400AD0B70B5164DF7
:102D700095F8804006462CBB2146602205F11000E4
:102D800002F0C8FF30682E6F21468E420ED100231C
:102D9000C0F87C31D0F87C3140F30730FEF718F9E9
:102DA00001230A4885F88030AB6770BDCBB29B0029
:102DB00003F580727C2B08BF845001F1010108BF2C
:102DC0008358E2E70248F0E7500000200000AD0B16
:102DD0000C00AD0B034B93F88000003818BF0120A6
:102DE000704700BF500000200148FFF71DBC00BF26
:102DF000C40000200148FFF7F3BB00BFC40000205F
:102E000073B503681646D3F80423002AA8BF4FF011
:102E100000420546A8BFC3F8042308460C46FFF746
:102E200087FD00B30846FFF777FD0146D8B9204675
:102E3000FFF766FD04B2A40004F58072034628681B
:102E40008150296882582144D1F8102542F00102AE
:102E5000C1F810252EB12968012202FA03F3C1F846
:102E6000043302B070BD2046FFF720FD0F4B083041
:102E700033F81030C3F38203042B12D0052B12D089
:102E800001A80194FFF702FD019AD0F81035D34054
:102E900003F00103991C204602B0BDE8704002F027
:102EA00014BB0321F7E70221F5E700BF5000002023
:102EB0002DE9F04F694BDFF8A881D3F80403D8F867
:102EC0007010C0B289B040F00040FFF789FD051EC8
:102ED0002FDAC24600235AF87C1F06A8CDE9063334
:102EE000FFF732FD5F4B01930DF118094FF0000B16
:102EF000019A12F8013B0192DA0803F007031AF86D
:102F0000022022FA03F3DA071CD409F10409BBF109
:102F1000000F14D0D8F870104FF00040FFF760FD9C
:102F2000D8F87C1006A8FFF70FFD0028DAD125F0AD
:102F300000450124002D79D109B0BDE8F08F4FF094
:102F4000010BD5E7484B5B440293D9F800100029E8
:102F5000DBD0029B91FAA1F11C78B1FA81F141EA30
:102F600044142046FFF7A2FC0830059438F810708E
:102F7000C808BB0819F80020039301F007010123DA
:102F800003FA01F122EA010209F8002005A8FFF77F
:102F90007DFC059A039B02F5E072C7F3820650F8A8
:102FA00022205B073746C2F3014224D5204639462A
:102FB000D6B2FFF785FC05A80594FFF767FC059BD3
:102FC00003F5E07350F82330C3F301439E4207D169
:102FD0000021204602F079FA3146204602F075FAC7
:102FE00005A80594FFF752FC059B012202FA03F3A2
:102FF000C0F82035A9E7022A0CD10321204602F0AF
:1030000064FA06F00503012BEAD139462046FFF7A2
:1030100057FCE5E702212046039202F056FA032E00
:10302000F3D0039A032ADBD1022EEDE795FAA5F33C
:10303000B3FA83F304FA03F29B0003F1804303F530
:10304000C04325EA0205D3F81005D3F81015C0F3E4
:103050000520C1F30141FFF733FC6BE7006000403E
:1030600050000020556400005564000001460148EE
:10307000FFF7B6BAD400002008B5144BA8220021EF
:10308000184602F047FE0322026111494261114ACB
:103090008161C2614FF480620262002282624262F8
:1030A000C26201660C4941661021816603460267CF
:1030B000C2664267BFF35F8F084911F8010D98544B
:1030C0000132102AF9D1BFF35F8F08BDE80C002050
:1030D00057640000AB0F00209B0F002070640000BD
:1030E00038B5EFF31185202383F31288BFF36F8F78
:1030F000064B9C6802F03FFA85F31188BFF36F8F8F
:103100002046BDE83840FDF7E1BE00BF900D00202D
:1031100038B5094B53F82040013053F82050A542F0
:1031200000D838BD636823B1204602F027FA08347E
:10313000F5E723689847FAE7EC61000070B52A4B81
:103140002A4C2B4D012286B003201A70FFF7E0FFB6
:10315000FDF7C6FB0420FFF7DBFF2646AE4204F175
:10316000300410D300F082FC204C224EAC4226D317
:1031700000F090FC02F0F5FC1F4A137B23F00103E2
:10318000137306B070BD54F80C3C059354F8103C12
:10319000049354F8143C039354F8183C029354F8E5
:1031A0001C3C019354F8203C009354E90A2354E951
:1031B0000C0100F047FA54F8303C5E65CDE7D4E9E5
:1031C0000A23B3F1FF3F08BFB2F1FF3F05D052EA37
:1031D0000301206803D102F0D0FA3034C6E731464B
:1031E000183000F00BFEF8E7AB130020705F000012
:1031F0009060000093580000D805002008B50348EF
:10320000034A0021121A02F0D1F908BDC8010020BA
:10321000B013002070B5164E164D1749902386B096
:1032200003FB006601220023CDE904230F22CDE930
:1032300002320193142303FB005504464FF4C0707F
:1032400000FB04110D4B00954FF4A072304600F0C6
:10325000F9F9737B0A4AEE6023F0040373734FF4A9
:10326000046304FB033313442C746B6006B070BD1D
:1032700048050020900D00208035002049560000B0
:10328000402D0020BFB50020FFF742FF2D4B83F3F8
:1032900008882D4D2D4E6B692D4F43F400736B61E3
:1032A0000024E02385F82230EC772C766C76AC761F
:1032B00085F820406B6A43F4E0236B6285F8234075
:1032C000FDF784FDFDF72AFF4FF0FF33AB62EB62A1
:1032D000204DFDF7E9FFFDF745FF40F201132846B9
:1032E000AB81C5E91C4400F0B9FEB56002F02FF9CE
:1032F0000120FFF70DFF0220174DFFF709FF00F037
:10330000E9FB164B75610593012315490094CDE93E
:1033100003434FF480623B46CDE90144284600F068
:1033200091F96A7B064622F0040228466A7302F08D
:1033300060FA2046FFF76EFF3A4631462846FDF711
:10334000C9FE00BF8035002000ED00E0900D002098
:103350003D31000068060020D8050020716400009F
:103360000037002038B5064C064D0020AC4200D393
:1033700038BD204602F01EF90028F9DB1C34F5E7C1
:10338000480100204801002073B50C46EFF311817D
:10339000202585F31288BFF36F8FC5685DB1256066
:1033A0002B68C360836901338361002081F3118836
:1033B000BFF36F8F11E052EA030603D125606FF06F
:1033C0000B00F3E7CDE900230246083000F09AFA3B
:1033D00018B9034B9B685B69236002B070BD00BFE6
:1033E000900D00202DE9F341044617461E46EFF3E9
:1033F0001188202383F31288BFF36F8FC368334A89
:103400007BB180689168884219D057EA060318D1C9
:1034100088F31188BFF36F8F6FF00F0002B0BDE823
:10342000F081916891F90E1021610133E360936896
:10343000A36088F31188BFF36F8F0020EEE7216946
:10344000F2E791F90E1090F90E309942A8BF194693
:103450006FF07E029142B8BF11468B422DDD02F023
:10346000FEF80546CDE9007619482246414600F0AF
:1034700049FA0028E1D0EFF31186202383F3128864
:10348000BFF36F8FA068D0B1236821699C420AD036
:103490004BB193F90E309942A8BF19466FF07E03E5
:1034A0009942B8BF194602F0DAF840B108483146EF
:1034B00000F098FA6FF00A00B0E70025D2E7002D7F
:1034C000F4D186F31188BFF36F8FF3E7900D0020DE
:1034D000AC13002038B5836804466BB3194A926870
:1034E00093422CD1C368012B03D9013BC360002058
:1034F00038BDEFF31185202383F31288BFF36F8F5C
:103500000169806802F0ABF8204602F0C6F9A060BD
:1035100060B190F90E2022610022C0F8882002F0EC
:1035200068F90948294600F05DFAE0E7E06085F3B4
:103530001188BFF36F8FDAE76FF01500D8E74FF00F
:10354000FF30D5E7900D0020AC13002037B51146B1
:10355000EFF31185202282F31288BFF36F8F046886
:103560009CB12368426823F003039442036008BFC0
:1035700043600121204602F0E3F8044685F31188F8
:10358000BFF36F8F204603B030BD51EA0302F5D080
:1035900000F10802CDE900131046294600F0B2F907
:1035A0000028EFD1014B9B685C69EBE7900D002090
:1035B00038B50446EFF31185202383F31288BFF357
:1035C0006F8F02F06AF950B10022C0F8882002F033
:1035D00010F929460748BDE8384000F003BAD4E99D
:1035E00002329A4218BF0133A36085F31188BFF3FA
:1035F0006F8F38BDAC13002013B5EFF31181202479
:1036000084F31288BFF36F8F846844B1013C8460F7
:1036100081F31188BFF36F8F002002B010BD52EA12
:10362000030406D181F31188BFF36F8F6FF00F0091
:10363000F3E7CDE900230246014800F063F9ECE727
:10364000AC1300202DE9F043073285B022F00702C9
:103650000E461F461099017300F158037F32C0E9EE
:1036600016330446002322F03F0204218360417395
:103670003F2A0F98A073C4E90633E37306F14009AB
:10368000A2F1400805D883F31188BFF36F8F084675
:1036900002DFB51829462046FDF720FA07300E9BB9
:1036A00020F00700A067C4E91C9802930D9B0193CA
:1036B0002D1A0C9B00932A463B4631462046FDF7C7
:1036C000D7FC0023636584F86C30044B9B6803B11E
:1036D000DB6FE367284605B0BDE8F083900D00205E
:1036E00038B50D4D2B4653F8184F9C4200D004B905
:1036F000EC68AB6838B95A7BD20604D1A26912B91A
:10370000DA897F2A05D89C4202D0204600F0BEFA12
:1037100023466B6138BD00BF900D002008B590F9BD
:103720000D20437B002A014604DA03F07F03437334
:1037300002F025F8044B9868431A58425841BDE8F6
:103740000840FFF7CDBF00BF900D002070B490F986
:103750000D30427B002B29DBD30627D183692BBB9D
:10376000134962F07F0242730A4652F8184F94429E
:1037700018BF2346CC6923B9C0E900242060C86182
:103780000CE090F90E5093F90E60B5420AD0AE42AB
:1037900008DD5A68C0E900321060586070BC002033
:1037A000FFF79EBF9C42E7D01B68E4E770BC704700
:1037B000900D00202DE9F041002A427B0E460CBFFF
:1037C00010210821114204460FD141EA0203D20917
:1037D00018D1437308291BD00120FFF781FFBFF3E5
:1037E0005F8F637B23F060036373274B9B68A34267
:1037F00043D1EFF30583002B3FD13046BDE8F041C4
:10380000FDF77ABB03F07F03437301F0B8FFE1E7F4
:10381000A36813B1204601F0BAFF04F1180002F0CA
:10382000C2F804F158074FF00008A56DBD4200D062
:10383000B5B9154FBB689C42CED1EFF30583002B81
:10384000CAD0124D0120FFF74BFF40F20113AB81AC
:1038500028460023C5E91C3300F000FCBD60BEE72C
:10386000284601F094FF05F1180002F09CF8C5F815
:1038700088802846FFF76AFFD7E786F31188BFF3F1
:103880006F8FBDE8F08100BF900D0020680600201A
:1038900070B590F90D20437B002A014604DA03F04D
:1038A0007F03437301F06BFF4B7B154A63F07F038B
:1038B00010464B7350F8183FD469834208BF002369
:1038C00023B9C1E900042160D1610CE091F90E50E7
:1038D00093F90E60B5420ED0AE420CDD5868C1E9D6
:1038E0000030016059609068431A5842BDE870404A
:1038F0005841FFF7F5BE9C42E3D01B68E0E700BFEC
:10390000900D0020F8B5124B0C461146114A9868EC
:103910001060DDE90676EFF31182202282F312882F
:10392000BFF36F8F9D68284601F03BFFB6F1FF3F64
:1039300008BFB7F1FF3F06D007493A46334605F1C5
:10394000180000F05BFA2046BDE8F840FDF7D4BA55
:10395000900D0020B00D002093580000F8B50446EB
:10396000EFF31186202383F31288BFF36F8F437B1D
:10397000DA0649B219D18569BDB903F07F034373F3
:1039800001F0FDFE437B164A817363F07F034373AE
:10399000134653F8180F984218BF0546D0695DB911
:1039A000C4E900300460D46111E0A173002086F303
:1039B0001188BFF36F8FF8BD95F90E70B9420BD027
:1039C0008F4209DD6B68C4E900531C606C60012004
:1039D000FFF786FE0120EAE7A842E1D02D68DEE786
:1039E000900D002049B9EFF3058030B9054B5A69B5
:1039F0009B689A4201D0FDF77FBA81F31188BFF32B
:103A00006F8F7047900D002010B5EFF311842022C6
:103A100082F31288BFF36F8F427B510704D484F383
:103A20001188BFF36F8F10BD22F004024273FFF7BD
:103A30008DFE21460248BDE81040FFF7D3BF00BF0E
:103A4000AC130020034648B9EFF3058232B9064AA9
:103A500051699268914201D0FDF74EBA83F3118803
:103A6000BFF36F8F704700BF900D0020EFF31181FF
:103A7000202383F31288BFF36F8F054B9A68D37BA3
:103A8000013BD37381F31188BFF36F8F704700BF81
:103A9000900D002038B5EFF31185202484F31288AF
:103AA000BFF36F8F0A4B9A68D37B0133D373002027
:103AB000FFF716FE85F31188BFF36F8FEFF31180C8
:103AC00084F31288BFF36F8FBDE83840FFF7BABFA9
:103AD000900D0020024B03F11802C3E90622704743
:103AE000900D0020F8B5EFF31185202383F31288A1
:103AF000BFF36F8F19498868437B03F07F034373DB
:103B000001F03DFE8B685A7B084662F07F025A73D3
:103B100050F8182FCC69824208BF002222B9C3E9AD
:103B200000042360CB610CE093F90E6092F90E70F3
:103B3000BE420ED0B7420CDD5168C3E900210B60D4
:103B400053600120FFF7CCFD2846BDE8F840FDF7A3
:103B5000D3B9A242E3D01268E0E700BF900D002085
:103B600050EA01032DE9F04105460E4603D1FFF767
:103B7000B9FF00202BE0831C71F1FF3329DB01F03A
:103B800027FF2C18EFF31188202383F31288BFF34B
:103B90006F8F124F124BB8681860FFF7BFFDB868FF
:103BA00010492A463346183000F028F9BA68537B8A
:103BB00043F0100353734046FDF79EF901F008FFF0
:103BC000201A63EB0303012873F10003D1DBBDE886
:103BD000F0816FF00104241AD4E700BF900D00209B
:103BE000B00D002093580000B1F1FF3F08BFB0F1C5
:103BF000FF3F08B506D10A4B986801F009FE4FF067
:103C0000FF3008BDFFF7ACFF4FF47A7147F6FF7342
:103C10000022C0FB0132D80B40EA4240F1E700BF6E
:103C2000900D0020014B9868704700BF900D002058
:103C3000044BC01A044BC0105843044B01221A54C1
:103C4000704700BFF8060020ABAAAAAAAC13002058
:103C5000C3897F2B12D80A4B1B6863B1094B90F9BB
:103C60000E201B689A4209DB437BDB0606D1064B1C
:103C7000C31A18BF012303F0010070470023FAE7BD
:103C8000B80D0020B40D00204805002070B50E4B83
:103C90000E4C1E7C06EB460304EBC304054620468F
:103CA00001F081FE0A4B002228469A55FFF7D0FF0B
:103CB00048B1084B08491A68013A2046D317BDE8B5
:103CC000704000F09BB870BD900D0020F8060020F9
:103CD000AC130020B80D0020313C000038B5EFF3E4
:103CE0001185202383F31288BFF36F8F104B114A85
:103CF0009C681068A04206D1FFF7C8FF85F31188C1
:103D0000BFF36F8F38BD00211B7C11600A4AD35C62
:103D1000002BF3D02046FFF79BFF0028EED0637BFB
:103D2000DB0602D12046FFF7B3FD2046E4E700BFE3
:103D3000900D0020B00D0020AC13002008B50648FF
:103D4000064A0749121A01F033FCBDE80840054A4B
:103D50000549064801F02CBC00000020C8010020E5
:103D6000886400000000000088640000000000205B
:103D7000034B1B680BB9FEF731BB0020704700BF37
:103D8000BC0D002030B570B10B4B5B6898420AD077
:103D9000036843B1D3E90421D0E90445121941EB8A
:103DA0000501C3E90421D0E9003213605A60002301
:103DB000C0E9003330BD00BFD800002010B50E4B65
:103DC0001C689C4204D1FFF7D3FF6FF0004010BD88
:103DD000FFF7CEFF002CF8D0D4E904321B1A62EBB7
:103DE000E072B3F1004F72F10001EEDA002AACBFCD
:103DF00018460020EBE700BFD8000020B3F1FF3FDA
:103E000008BFB2F1FF3FF8B504461D4616465ED026
:103E10008160EFF31187202383F31288BFF36F8F44
:103E2000013275F1FF3324DA2E49D1E900206FF019
:103E300001039B1A4FF0FF3262EB00009E1B60EB08
:103E40000500012E70F1000301DA01260020C4E90B
:103E50000460254ED6F800C07568B44508BF4FF021
:103E6000000CBCF1000F0DD1C4E900652C6074603A
:103E70001CE0FFF77DFF013645F10005361845EBE4
:103E8000E070E4E7DCE90420D4E90431934271EB0B
:103E9000000E1DDAD21ADCF8043060EB0100CCE928
:103EA0000420C4E900C31C60CCF804403368B3426A
:103EB00009D09C4207D10D4B1C6824B9FFF77EFF47
:103EC0002146FEF75DFA87F31188BFF36F8FF8BDC7
:103ED0009B1A61EB0001AC45C4E90431C4D0DCF8A5
:103EE00000C0BEE710070020D8000020BC0D002055
:103EF0002DE9F84FEFF3118C202383F31288BFF3E1
:103F00006F8FDFF8B0A0DFF8B0902C4FC9F8000039
:103F1000DAF800000024504508BF00200025D7E94A
:103F20000021D9F80030E04678B3D0E9046C4FEABC
:103F3000E37EB3427EEB0C0B05DAF61A6CEB0E0453
:103F4000C0E9046421E0B21841EBE671C0E9044520
:103F5000C7E90021FFF716FF88F31188BFF36F8FC1
:103F600083689847EFF31188202383F31288BFF307
:103F70006F8FD9F80030DAF800009B1B5045C4461B
:103F8000C9F80030CBD1D7E900219A1841EBE3738F
:103F90000024C7E90023C9F80040FFF70FFF2146BE
:103FA000FEF7EEF988F31188BFF36F8FBDE8F84F85
:103FB000FFF794BED8000020BC0D002010070020A1
:103FC00010B5EFF31184202383F31288BFF36F8FB2
:103FD000FFF7CEFE054A0346D2E90001181841EB6F
:103FE000E37184F31188BFF36F8F10BD10070020B9
:103FF0002DE9F7430026009600F10C08EFF3118934
:10400000202484F31288BFF36F8F8568694005EA26
:1040100002070A4055400C4985606A46019501F047
:10402000A0FC009C44B1C4F888606566204600216D
:10403000246E01F007FCF5E740464946FFF7D2FC45
:10404000384603B0BDE8F083E55A00000A46014651
:10405000014801F068BD00BF48010020014BC36763
:10406000704700BF4801002038B504460D4601F0F6
:104070007EFB20B9064B9B68DB6F0BB938BD054B47
:104080002A4621461846BDE8384001F04CBD00BF25
:10409000900D00204801002038B5064C064DAC427A
:1040A00001D3002038BDD4E90112204601F05CFDA7
:1040B0001434F4E7480100205C01002010B50A4CDC
:1040C00023681BB101232360002010BD00F0EAF833
:1040D0000028F7D00138062803D8044B53F82000F5
:1040E00010BD034810BD00BFC00D002004620000D9
:1040F000FE8FFFFFBFF34F8F0549064BCA6802F4DE
:10410000E0621343CB60BFF34F8F00BFFDE700BFFA
:1041100000ED00E00400FA0510B4094B09490A4C0F
:104120004FF0FE32C3F800244968C3F80424C3F8F2
:104130000824C3F80C240023C4F8003510BC084739
:1041400000B00250E000002000A00250D0E90012B0
:10415000014BC3E900127047E000002010B504468F
:1041600050B1636813F0685F05D0064A934202D0ED
:1041700000232360626010BD034B04485B689847CE
:10418000EFE700BF2C5F5CA9E00000202062000088
:10419000C8B143680D4A934213D013F0685F0ED044
:1041A000012350E8002F194640E8001C9CF0000F46
:1041B000F7D1012AF5D0BFF35F8F00207047044884
:1041C0007047044870476FF4E04070472C5F5CA96B
:1041D000E98FFFFFEA8FFFFF80B14368094A9342EE
:1041E0000AD013F0685F05D0BFF35F8F0023036030
:1041F0001846704704487047044870476FF4E04021
:10420000704700BF2C5F5CA9E98FFFFFEA8FFFFFBB
:1042100010B5044620B1044B63600022226010BD3B
:104220000248FFF779FFF6E73A00003A48620000DB
:1042300070B5D0E90023174C174D6360D0E9023008
:10424000C4E9023022604868D1F800C0134BC3E9CA
:1042500000C0D5F81801D1F808C0C3F808C010F0A4
:10426000685FD1F80CC00969C3F80CC0196110D09F
:104270000B49C5F8BC110023C5E9453105F58A7025
:10428000C5F8B8319047236805F5DC70BDE870408B
:10429000184770BDFC000020D80D0020E800002069
:1042A0002C5F5CA938B500F02FF820B1032400F092
:1042B00063F8204638BD00F031F898B900F0ACF84A
:1042C00098B90F4DD5F828391B0EF02B08D1D5F829
:1042D000242A0C4B9A420AD0072400F017F8E6E78C
:1042E0000624FAE70424204638BD0024F5E701201F
:1042F00000F092F804460028F7D1C5F80C0AD8E778
:1043000000B002500000E0200020704700207047FD
:10431000014BC3F8040A704700B0025010B51148B1
:1043200000F048F800B110BD0F4800F043F8002835
:10433000F9D10E4C204600F03DF80028F3D10C4B8B
:104340000C481C6000F036F801460028EBD100F064
:104350002DF8044608B1204610BD00F03FF8204675
:10436000FAE700BF3C0100203801002034010020A2
:104370002C0100203001002008B5084800F024F886
:10438000074800F021F8074800F01EF8064800F042
:104390001BF8BDE8084000F00BB800BF3C0100204E
:1043A0003801002034010020300100200020704737
:1043B000704700BF08B5034B02681B681068984738
:1043C000002008BDFC00002008B5034B02685B68B4
:1043D00010689847002008BDFC00002070B5094C0B
:1043E000094D2069AB68984718B1084B08485B68CD
:1043F0009847084AEB68206900211160BDE87040C9
:10440000184700BFE8000020FC000020E00000206A
:104410006C620000D40D0020F8B51A4D1A4E044607
:10442000B26828699047E8B9184F3B684CB1A3B10E
:10443000012B19D0013B3B602869F36898470020A5
:10444000F8BD43B9124A0121C2F800151149D1F84B
:104450001029002AFBD101333B60F3682869984793
:104460000020F8BD0C48F8BD0A4AD2F81039002BDC
:10447000FBD1074A6FF07E40C2F80035FFF748FFD6
:104480003B68D7E7E8000020FC000020D40D0020A6
:1044900000A0025000B00250E98FFFFF2DE9F04F5D
:1044A0008DB043680293837815469A07804640F1A1
:1044B0000D8100240E78002E00F00A81252E0BD0ED
:1044C0004B1C03930134029B414630469847002819
:1044D000C0F2F6800399EDE74E788B1C252E0393EE
:1044E000F0D00027B946BB46BBF11F0F38D8A6F164
:1044F0002003102B0AD8DFE803F02A090930090944
:10450000092109090928092D09091F00A6F130030D
:10451000092B33D92A2E37D11BF0400F55F8043B15
:1045200040F08280002BA7BF4BF0200B9946C3F1CF
:1045300000094BF0280B01E04BF0010B039B13F833
:10454000016B0393002ECFD130E04BF0020B4BF008
:10455000040BF3E74BF0080BF0E74BF0100BEDE723
:10456000BBF17F0F19D8A6F13003092BD2D81BF06D
:10457000400F03D00A2101FB0737DFE70A2101FBC7
:1045800009394BF0200BD9E72E2E06D11BF0400F36
:1045900040F09E804BF0400BD0E76C2E31D02BD8F2
:1045A000682E36D06A2E3CD04C2E3AD0002F46F0E2
:1045B0002003B8BF2BF04002A3F16501BCBF1FFA76
:1045C00082FB0027022901D9612B2FD1073525F065
:1045D0000705DFF8ACA2083507271BF0080F66D0E7
:1045E0000AEB070B56465E4563D1A4EB0A0A06EBBD
:1045F0000A02A9EB07096FE1742E9FD07A2E9DD095
:10460000D4E71BF0800F18BF4BF4007B4BF0800BFE
:1046100094E71BF4807F18BF4BF4007B4BF4807B46
:104620008CE74BF4207B89E71F4687E7A6F16301FF
:10463000122900F2F080DFE811F013004F00EE00C5
:10464000EE00EE00EE004F00EE00EE00EE00EE0099
:10465000EE00FE00E900EE00EE001B00EE00AF00F1
:1046600055F8043B8DF8183001270DF1180AB4E70E
:1046700055F804AB834BBAF1000F08BF9A461BF004
:10468000400F14BF39464FF0FF31504601F0D1FAC8
:104690000746A2E7029B41462020984700280FDBEF
:1046A000013EB742F6D34C44A41BB14698E74E46B0
:1046B000F7E716F8010B029B41469847002892DA6B
:1046C00098F8023043F0040388F802304FF0FF34CA
:1046D00020460DB0BDE8F08F1BF0800F34D01BF4E6
:1046E000007F2CD0073525F00705AA4669685AF8DF
:1046F000080B2BF010050029ADB237DA404261EB10
:10470000410145F480650DF1180B0A235A4601F06A
:104710009CFAA0EB0B0301936B0662D5019B25F07D
:1047200001019F4289B240F3A180002E00F09980E0
:1047300015F0100240F09C80BB460D4623E0AA46CF
:104740005AF8040BC117D4E7AA461BF4807F5AF825
:10475000041B01D10846F5E71BF4007F15BF48B2E2
:1047600008B241F3C01141F3C031C2E750EA01037E
:10477000C9D11BF0400FC6D0002FC4D12BF01102BD
:1047800095B2BB46019740F2064115EA01021CBFF3
:104790000BF1010B00222CE02BF010021FFA82FB20
:1047A0000A231BF0800C49D01BF400711DBF073594
:1047B00025F00705AA46AA461ABF5AF8080B6968E9
:1047C0005AF8040B50EA010545D12BF016051BF0F1
:1047D000400FADB242D0002F40D12BF0170295B25E
:1047E000019715F0100248D0019B002E42D103F131
:1047F000010B29075AD4EB0706D5D9456FDD01997E
:10480000A9EB0B035F18CB465B4649E04BF0100B5E
:1048100010237826C5E7782B04D1C6F1780343F03E
:104820001003BEE7029B4146252098470028FFF66B
:1048300047AF023447E608230026B2E7AA461BF436
:1048400080715AF8040BBDD01BF400711ABFC0B2BE
:10485000614680B2B6E72BF0060295B20DF1180B57
:1048600054E725F01105ADB2BB468CE70D46B8E71D
:104870003B460D4603F1020BBBE7DDF804B082E7CF
:104880007D64000076640000CDE904324146029B5D
:10489000202098470028FFF613AF049B059A0133A8
:1048A0009945F1DCA4EB0B01CC189B460AB3029BA3
:1048B0004146302098470028FFF602AF8EB90134F8
:1048C0002744019B391B994224DC1D465DBB019A9C
:1048D000A9EB0B09224455461446914435E0019F4B
:1048E00092E7023441463046029B98470028E7DAB7
:1048F000E6E640F206410D42E2D015F0020F14BF89
:104900002B20202015F4806F04F10104414618BFCC
:104910002D20E9E7029B414630209847002804F10A
:104920000104CEDACCE606AB013D4146585D029B60
:1049300098470028CADAC3E6029B414620209847E0
:10494000002804F10104FFF6BBAEA9EB0403002B21
:10495000F2DCBFE57047012303FA01F103691B682C
:10496000194218BF82F0010212B18368DB68184750
:1049700083681B69FBE738B5002120EAE0744FF437
:10498000004540F2E7304FF47A720023C4FB050182
:10499000FBF7B6FBBDE83840FFF726B9836800EBAC
:1049A000C101B3F5004F2CBF51F8220031F81200BD
:1049B000704700EBC1018068B0F5004F2CBF41F893
:1049C000223021F81230704708B50122FFF7E6FFC8
:1049D000D04008BD8368B3F5004F00EBC10108D398
:1049E0004B681AB143F001034B60704723F0010399
:1049F000FAE74B881AB143F001034B80704723F06C
:104A00000103FAE753000122FFF7D3BF8368B3F530
:104A1000004F34BF04230823C91A081AC00870477E
:104A2000B0F5004F34BF04230823481C0833A0EB23
:104A3000D300B0FA80F0C0F11F0070472DE9F041BB
:104A4000174603220E460446FFF7A8FF8642054696
:104A500007F104080AD1E3680122BA4023EA0203FD
:104A6000E360002344F82830BDE8F081314602229B
:104A70002046FFF793FF2B460646014644F8285090
:104A800020460322FFF795FF33462946204602229F
:104A9000BDE8F041FFF78DBF70B50D46866804464E
:104AA000FFF792FFB6F5004F014601D3012809D068
:104AB0003046FFF7B5FF294602462046BDE8704064
:104AC000FFF7BCBF70BD2DE9F04705468068FFF7D2
:104AD000A7FF05EB800A8846DAF810900646B9F180
:104AE000000F1BD00327DAF8104028462146FFF7B5
:104AF0006BFF404507D3324621462846FFF79EFF0D
:104B00002046BDE8F087032221462846FFF746FFEE
:104B1000013FCAF8100001D08145E4D1EB680136AD
:104B20004FF0FF34B4401C40EAD094FAA4F2B2FA39
:104B300082F2131D55F82340DEE72DE9F0411446BB
:104B400005460E46FFF740FFA4EB0608371B074457
:104B5000424631462846FFF755FF3A462146284649
:104B6000FFF750FF4346002221462846FFF721FF6A
:104B700021462846FFF728FF3B46211800222846F9
:104B8000BDE8F041FFF715BF2DE9F0411646044698
:104B90000F46FFF719FF314605462046FFF714FF81
:104BA00005442A4639462046FFF72CFF3146204669
:104BB000FFF70AFF2B46311800222046BDE8F041DE
:104BC000FFF7F7BE2DE9F0410D4686680446FFF772
:104BD000FBFEB6F5004F014601D3012832D0304626
:104BE000FFF71EFF04EB80010E6996B9E36801220E
:104BF00082401343E36002220D612B462946204682
:104C0000FFF7D7FE032229462046BDE8F041FFF713
:104C1000D0BE022231462046FFF7C0FE2946034699
:104C200007462046FFF7C5FE0322334629462046A5
:104C3000FFF7BFFE39462B462046FFF7BAFE022299
:104C40003146E1E7BDE8F081F8B50C460546FFF7CF
:104C5000BBFE2618012231462846FFF79FFEC307F8
:104C60000CD431462846FFF717FF21462846FFF7A8
:104C7000ABFE214622182846FFF786FF0022214678
:104C80002846FFF78BFE271A012239462846FFF7F0
:104C900085FE10EA020613D139462846FFF7FCFECE
:104CA000214632462846FFF779FE2246211A284639
:104CB000FFF76AFF214632462846FFF76FFE241AA7
:104CC00021462846BDE8F840FFF77CBF38B571B1F2
:104CD00005682846FFF79AFE00220446014628464A
:104CE000FFF778FE2146BDE83840FFF7ADBF38BD7D
:104CF00070B5066809B9002070BDB368B3EBD10F79
:104D0000F9D9B3F5004F34BF04230823CC1D1C444C
:104D1000E40821463046FFF7D6FE05460028EAD0D3
:104D200001463046FFF750FEA04209D92C442946DF
:104D300030462246FFF701FF21463046FFF742FF8B
:104D4000304601222946FFF745FEB368B3F5004F10
:104D500034BF0423082303EBC5031844CCE72DE933
:104D6000F84306681446B26801F1FF39B2F5004F06
:104D700034BF0423082319EA01090F460BD0494226
:104D800039408B424F4628BF0B46894654B900250F
:104D90002846BDE8F8839942F8D82146BDE8F84393
:104DA000FFF7A6BFB2EBD40FF1D9E11DB2F5004F6A
:104DB000394434BF04220822C91A1144C9083046B4
:104DC000FFF781FE80460028E1D0B368B3F5004FBD
:104DD00034BF0423082309EBC0051D4435447B1E62
:104DE0001D44B5FBF7F57D43A5EB09052946304683
:104DF000FFF70CFE2C44073424F00704A41B804565
:104E000007464FEAE40408D2024641463046FFF71F
:104E100094FE41463046FFF7D5FE39463046FFF74F
:104E2000D3FD3844844208D2394630462246FFF743
:104E300084FE21463046FFF7C5FE01223946304642
:104E4000FFF7C8FDA4E7B2F5802F2CBF0823042389
:104E5000D21A2DE9F0418C18CD1D25F0070524F05C
:104E60000704641B0026E40805602146AC60EE6080
:104E70002046FFF7D5FD421D9200013002F10707E1
:104E80004FEAD707A2F110023146B8BF324605F10A
:104E9000100000F03FFF3A4631462846FFF7B2FDCA
:104EA0003346324631462846FFF783FDA4EB070818
:104EB000284631460122FFF78DFD42463946FFF76D
:104EC000A1FD3B46324639462846FFF772FD214692
:104ED0002846FFF797FD4346324621462846FFF70E
:104EE00068FD214628460122FFF774FD3946BDE8DA
:104EF000F041FFF767BE002070470FB407B504A963
:104F000051F8040B0191FBF79FFB03B05DF804EB34
:104F100004B07047038B13F0070305D10368002B1F
:104F20000CBF002003207047022B05D1408BB0FA44
:104F300080F0400980007047012B05D10368002BE9
:104F40000CBF0020052070470020704710B50C46AC
:104F500000B111B96FF0150010BD081D00F093F8F5
:104F60000028F9D1A368032BF6D9F3E72DE9F04126
:104F70000D4607461946281D90461E4600F094F837
:104F8000044638B13346424629463846A446BDE871
:104F9000F0416047BDE8F08110B4EFF311822024A6
:104FA00084F31288BFF36F8F416110BC0121FBF7BE
:104FB00083BB38B50C46054658B151B10B6843B1B7
:104FC0004B6833B11C22002100F0A4FE2C610020AC
:104FD00038BD6FF01500FBE770B505460E46FFF7CC
:104FE000B5FF041E14DBEFF31182202383F3128834
:104FF000BFF36F8F6B8B2C8B4FF6FF718B4204F0DE
:10500000070407D182F31188BFF36F8F6FF00A0492
:10501000204670BD022C0CD101336B8382F31188C2
:10502000BFF36F8F0023224631462846FFF79EFFCD
:10503000EEE7062C14D8DFE804F004131313041A67
:105040000400002333606B683BB9C5E90066ACB966
:1050500002212846FBF730FBDAE71E606E60F6E7B8
:1050600082F31188BFF36F8F6FF00404D0E782F3EF
:105070001188BFF36F8F6FF08504C9E782F3118841
:10508000BFF36F8FC4E7034658B1426802F00302D2
:10509000012A03D0032A04D1026812B100209860CB
:1050A00070476FF0150070474268816002F003029C
:1050B000032A4FF0000203460CBF006810465A60F6
:1050C00070477047FEE7012801D1EFF30583FEF733
:1050D00007B801460068FFF7F6BF08B5FBF7FAFC12
:1050E000BDE80840FBF71ABD00210120FFF7EBBF28
:1050F00061B662B680F31188BFF36F8F704772B6E6
:10510000002383F31188BFF36F8FBFF34F8F30BF3E
:1051100062B6BFF36F8F704772B6002383F31188B6
:10512000BFF36F8FBFF34F8F20BF80F31188BFF3A2
:105130006F8F62B67047202809D9B0F1004F08D8A8
:105140000138B0FA80F0C0F11F004000704708201D
:1051500070473E20704708B5FCF75AF9002008BD9B
:105160000369C9B20C2201FB0233186C00F007007E
:10517000704770B5C9B20369EFF31185202484F339
:105180001288BFF36F8F0C2606FB0134246C14F0D9
:10519000C00408D0A24206D085F31188BFF36F8FF8
:1051A0004FF0FF3070BD06FB013301221A6485F316
:1051B0001188BFF36F8F436803EBC1035B689847A7
:1051C0000020EFE78022FFF7D4BFF8B5069F0469FF
:1051D000C9B2EFF31186202585F31288BFF36F8FD4
:1051E0000C2505FB0144256C05F0070CBCF1010FF3
:1051F0000CD1276486F31188BFF36F8FC4E90E23A7
:10520000436853F8313098470020F8BD05F0C005D9
:10521000AF4286F31188BFF36F8F0CBF6FF077003A
:105220004FF0FF30F1E713B580240094FFF7CDFF76
:1052300002B010BD10B40069CBB21C2403FB040003
:10524000002110BC10470020FDF798BA002000F0A4
:10525000F1B81046FEF7ACB943685B68D3F8103577
:105260000B600020704743685B6802EA010021EA96
:105270000201C3F80805C3F80C1500207047436805
:105280005B680020C3F80815704743685B6800201E
:10529000C3F80C15704743685A68D2F8043521EA00
:1052A00003000B40C2F80805C2F80C350020704717
:1052B00010B503695868F8B1884219D19C6808682C
:1052C0005860A14200D19860002008602AB15A6855
:1052D0000A609A68596002B99960002010E0814222
:1052E00006D10868206098688142EDD19C60EBE7A8
:1052F000044600680028F2D1002AE8D16FF01500BA
:1053000010BD30B543681360057A446804EBC504EA
:10531000A34202D36FF0010030BD5C798C4201D012
:105320000833F0E70020F7E743681B68D3F88004F0
:10533000C3F880047047436802691B68D3F8100102
:1053400050B15269002012780A70C3F81001D3F8E6
:10535000102101221A6070474FF0FF307047026839
:105360000346D2F8580140B95B689B0706D4D2F8CF
:105370002001003818BF01207047012070474268A3
:105380001368D3F80413C90517D5D3F82011A1B1B8
:10539000EFF31181202080F31288BFF36F8FD3F8D1
:1053A000200130B10020C3F82001D3F820010120F2
:1053B000D86081F31188BFF36F8F5268D20614D57D
:1053C000EFF31182202181F31288BFF36F8FD3F89E
:1053D000581111B10021C3F800154FF48001C3F832
:1053E000081382F31188BFF36F8F704700F15003E9
:1053F0009B009BB203F1804303F5883300221A60BF
:105400001B687047FEF75ABE08B5FBF777FAFBF743
:105410004BFBBDE80840FEF751BE004700F093B8D3
:10542000C00000F1804000F5F830C0F81015C0F859
:1054300014257047FDF71EB9F7B5019001A8DDE905
:10544000084716461D46FDF721FA019BB6F1000CF0
:1054500018BF4FF0010C00EB83000B1E18BF012397
:10546000002D43EA4C0314BF4FF00C0C4FF0000C1E
:10547000002C43EA0C0314BF4FF4E06C4FF0000C17
:10548000002F43EA0C03D0F8002714BF4FF4403C30
:105490004FF0000C43EA0C0322EA030301B1097840
:1054A0000EB13678760019430DB12D78AD00314339
:1054B0000CB12478240229430FB13F783F040C43F8
:1054C0003C43C0F8004703B0F0BD1FB50DF10F031A
:1054D000019300238DF80F1000931A461946FFF729
:1054E000ABFF05B05DF804FB38B5054608460C4631
:1054F000FDF71EFAB0B10846FDF70EFA90B908465E
:10550000FDF7FEF92A6801238340C2F808332A68B0
:1055100003B202EB8303D3F8102522F00302C3F891
:10552000102538BD20460021BDE83840FFF7CDBF2B
:10553000FDF784BAFFF7D8BFFDF79EBD08B5FFF7AA
:10554000FBFF002008BD08B1FBF794BF7047704710
:1055500040B1C368587810F001001EBF1878B0FA47
:1055600080F040097047EFF31183202383F3128802
:10557000BFF36F8FFEE708B5FFF7F5FF10B5D0E971
:10558000003433B90020E268537843F001035370CC
:1055900010BD204698470028F4D00028B8BF4042EC
:1055A000E368FF28A8BFFF201870ECE700F0B2BB4B
:1055B00000F0A2BB82684369134313F003030CD1CC
:1055C000C3600169994201D800207047C168116029
:1055D0004169C26001330A44F3E76FF01500704778
:1055E00010B5C0E904320023816083610446FFF7EF
:1055F000E1FF0028A8BFC4E9004410BDF8B5044687
:105600000D46EFF31186202383F31288BFF36F8FCB
:10561000C76877B900F041F958B1C0F888704561A2
:1056200000F0E7F8314604F10800BDE8F840FEF765
:10563000D9B9E3682B60A369E560013BA36186F3F8
:105640001188BFF36F8FF8BD08B52024EFF31183E5
:1056500084F31288BFF36F8FFFF751FDF6E790F9DF
:105660000E308B4201D0FEF779B900207047034617
:105670000020C3E90200C3E9003370472DE9F84375
:10568000994604469DF820300D46904600F10806E4
:10569000EFF31187202282F31288BFF36F8F03B1DB
:1056A0004568304600F0F9F860B10023C0F8883052
:1056B000C0F8148000F09DF830463946FEF792F9A4
:1056C00000200CE0B9F1000F1CD00821FEF7CCFC43
:1056D00038B987F31188BFF36F8F6FF00B00BDE807
:1056E000F8830122C0F804800260016801F0030120
:1056F00065B922680A43026062682060002ADBD133
:105700006060D9E7C8F800904046EEE72A68032AAF
:105710000BD80160616811B9C4E90000CCE70A68E0
:1057200002F0030202430A60EAE722F003020A439E
:1057300002602A6802F0030240EA02032B60BBE722
:1057400010B5044630B10268930703D0446809B12C
:1057500000F0FCF9204610BD07B50123009300239B
:105760000A461946FFF78AFF03B05DF804FBEFF322
:105770000580003818BF01207047FEF745B9D0E911
:10578000003213605A600023C0E90033704708B547
:10579000FFF7F5FF437B23F002034373002383608D
:1057A00008BD38B504460D46FDF7B8FF637B43F0EE
:1057B00002036373E5B1A5602B689D4209D16B6854
:1057C000C4E900531C606C6012E06A689A42F6D02B
:1057D0001B68002BF3D094F90E2093F90E108A4227
:1057E000F3D09142F1DD5A68C4E9003214605C6084
:1057F00038BD10B5EFF31184202383F31288BFF373
:105800006F8FFDF7A3FF84F31188BFF36F8F10BD77
:1058100010B50446183000F0C6F8EFF311812023CC
:1058200083F31288BFF36F8F627B12F0100204D0F3
:1058300081F31188BFF36F8F10BD2046BDE8104083
:10584000FDF7B8BF38B5EFF31184202383F3128836
:10585000BFF36F8F90F86C50427B002380F86C3060
:105860002DB121B184F31188BFF36F8F38BD12F0D1
:10587000280FF7D183680BB1FFF789FF437B29B964
:1058800003F0FB034373FDF761FFEBE703F0EB036A
:10589000F8E701211838FFF7D5BF38B5EFF31185C8
:1058A000202383F31288BFF36F8F0468A0420DD0CA
:1058B00034B12046FFF76BFF04F1180000F073F8D5
:1058C00085F31188BFF36F8F204638BD0024F7E7BA
:1058D00010B50146EFF31184202383F31288BFF340
:1058E0006F8F83680BB1FFF752FF84F31188BFF30A
:1058F0006F8FBDE8104001F1180000F054B838B5C2
:10590000054600202C68A54200D004B938BD2046C9
:10591000FFF7DEFF2046FFF76CFF0120F2E7EFF311
:105920001181202282F31288BFF36F8F027BD2078E
:105930000CD581F31188BFF36F8F002383F3118897
:10594000BFF36F8F0423184602DF7047437B1B07AA
:1059500004D581F31188BFF36F8F70470122FDF7E3
:1059600029BF2DE9F04105460E461746EFF3118891
:10597000202383F31288BFF36F8F0468A0420FD1F6
:10598000002088F31188BFF36F8FBDE8F08139469E
:105990002046B0470028F4D16B68A342F0D02468B9
:1059A000002CF4D1ECE710B5EFF31184202282F340
:1059B0001288BFF36F8F03683BB1FEF7E3F9002055
:1059C00084F31188BFF36F8F10BD6FF01500F7E7F8
:1059D00008B5FEF7F5FA08BDB3F1FF3F08BFB2F115
:1059E000FF3F70B504461D46164613D01A4315D026
:1059F0006FF00102921B4FF0FF3363EB05010029AA
:105A000004DAFEF7DDFA821941EB0501C4E9002151
:105A1000204670BD4FF0FF321146F7E70022FBE74A
:105A2000B3F1FF3F08BFB2F1FF3FF8B50746164696
:105A30001C4610D054EA020311D0FEF7C1FAB0425E
:105A40000A46A14103460AD2F31A64EB0204C7E9ED
:105A500000343846F8BD4FF0FF331C46F7E700230B
:105A6000FBE72DE9F3470646DDE90A9817460C46A1
:105A7000E1B102F0010AFEF7D5F80546EFF3118116
:105A8000202383F31288BFF36F8FBB0744BF00232B
:105A9000B360B36803EA0402BAF1000F0AD094427B
:105AA0000AD181F31188BFF36F8F1C40204602B0EA
:105AB000BDE8F087002AF4D159EA080305D181F343
:105AC0001188BFF36F8F0023EFE7C5E9194732460E
:105AD000CDE9009806F10C00FDF714FF0028F2D183
